{
  "contractName": "ZombieFactory",
  "abi": [
    {
      "constant": true,
      "inputs": [
        {
          "name": "",
          "type": "uint256"
        }
      ],
      "name": "zombies",
      "outputs": [
        {
          "name": "name",
          "type": "string"
        },
        {
          "name": "dna",
          "type": "uint256"
        }
      ],
      "payable": false,
      "stateMutability": "view",
      "type": "function"
    },
    {
      "constant": false,
      "inputs": [
        {
          "name": "_name",
          "type": "string"
        }
      ],
      "name": "createRandomZombie",
      "outputs": [],
      "payable": false,
      "stateMutability": "nonpayable",
      "type": "function"
    },
    {
      "anonymous": false,
      "inputs": [
        {
          "indexed": false,
          "name": "id",
          "type": "uint256"
        },
        {
          "indexed": false,
          "name": "name",
          "type": "string"
        },
        {
          "indexed": false,
          "name": "dna",
          "type": "uint256"
        }
      ],
      "name": "NewZombie",
      "type": "event"
    }
  ],
  "bytecode": "0x60606040526010600055600054600a0a600155341561001d57600080fd5b6104d68061002c6000396000f30060606040526004361061004c576000357c0100000000000000000000000000000000000000000000000000000000900463ffffffff1680632052465e146100515780637bff0a0114610111575b600080fd5b341561005c57600080fd5b610072600480803590602001909190505061016e565b60405180806020018381526020018281038252848181546001816001161561010002031660029004815260200191508054600181600116156101000203166002900480156101015780601f106100d657610100808354040283529160200191610101565b820191906000526020600020905b8154815290600101906020018083116100e457829003601f168201915b5050935050505060405180910390f35b341561011c57600080fd5b61016c600480803590602001908201803590602001908080601f016020809104026020016040519081016040528093929190818152602001838380828437820191505050505050919050506101a0565b005b60028181548110151561017d57fe5b906000526020600020906002020160009150905080600001908060010154905082565b60006101ab826101bb565b90506101b78282610238565b5050565b6000600154826040518082805190602001908083835b6020831015156101f657805182526020820191506020810190506020830392506101d1565b6001836020036101000a03801982511681845116808217855250505050505090500191505060405180910390206001900481151561023057fe5b069050919050565b60006002805480600101828161024e9190610354565b9160005260206000209060020201600060408051908101604052808781526020018681525090919091506000820151816000019080519060200190610294929190610386565b5060208201518160010155505090507f88f026aacbbecc90c18411df4b1185fd8d9be2470f1962f192bf84a27d0704b78184846040518084815260200180602001838152602001828103825284818151815260200191508051906020019080838360005b838110156103135780820151818401526020810190506102f8565b50505050905090810190601f1680156103405780820380516001836020036101000a031916815260200191505b5094505050505060405180910390a1505050565b815481835581811511610381576002028160020283600052602060002091820191016103809190610406565b5b505050565b828054600181600116156101000203166002900490600052602060002090601f016020900481019282601f106103c757805160ff19168380011785556103f5565b828001600101855582156103f5579182015b828111156103f45782518255916020019190600101906103d9565b5b509050610402919061043d565b5090565b61043a91905b8082111561043657600080820160006104259190610462565b60018201600090555060020161040c565b5090565b90565b61045f91905b8082111561045b576000816000905550600101610443565b5090565b90565b50805460018160011615610100020316600290046000825580601f1061048857506104a7565b601f0160209004906000526020600020908101906104a6919061043d565b5b505600a165627a7a72305820112922ba05c2e1a2f724d202faa88a572f2f4f0d9b40d2cc6191ff0a3d88117d0029",
  "source": "pragma solidity ^0.4.18;\n\ncontract ZombieFactory {\n    event NewZombie(uint id, string name, uint dna);\n\n    uint dnaDigits = 16;\n    uint dnaModulus = 10 ** dnaDigits;\n\n    Zombie[] public zombies;\n\n    struct Zombie {\n        string name;\n        uint dna;\n    }\n\n    function createRandomZombie(string _name) public {\n        uint randDna = _generateRandomDna(_name);\n        _createZombie(_name, randDna);\n    }\n\n    function _createZombie(string _name, uint _dna) private {\n        uint id = zombies.push(Zombie(_name, _dna));\n        NewZombie(id, _name, _dna);\n    } \n\n    function _generateRandomDna(string _str) private view returns (uint) {\n        return uint(keccak256(_str)) % dnaModulus;\n    }\n}",
  "sourcePath": "/Users/adam/Documents/Crypto/crypto-zombie/contracts/ZombieFactory.sol",
  "compiler": {
    "name": "solc",
    "version": "0.4.18+commit.9cf6e910.Emscripten.clang"
  },
  "schemaVersion": "1.0.1",
  "updatedAt": "2017-12-12T22:22:13.049Z"
}